{
  "contractName": "Flashloan",
  "abi": [
    {
      "inputs": [
        {
          "internalType": "address",
          "name": "kyberAddress",
          "type": "address"
        },
        {
          "internalType": "address",
          "name": "uniswapAddress",
          "type": "address"
        },
        {
          "internalType": "address",
          "name": "wethAddress",
          "type": "address"
        },
        {
          "internalType": "address",
          "name": "daiAddress",
          "type": "address"
        },
        {
          "internalType": "address",
          "name": "beneficiaryAddress",
          "type": "address"
        }
      ],
      "payable": false,
      "stateMutability": "nonpayable",
      "type": "constructor"
    },
    {
      "anonymous": false,
      "inputs": [
        {
          "indexed": false,
          "internalType": "enum Flashloan.Direction",
          "name": "direction",
          "type": "uint8"
        },
        {
          "indexed": false,
          "internalType": "uint256",
          "name": "profit",
          "type": "uint256"
        },
        {
          "indexed": false,
          "internalType": "uint256",
          "name": "date",
          "type": "uint256"
        }
      ],
      "name": "NewArbitrage",
      "type": "event"
    },
    {
      "constant": false,
      "inputs": [
        {
          "internalType": "address",
          "name": "sender",
          "type": "address"
        },
        {
          "components": [
            {
              "internalType": "address",
              "name": "owner",
              "type": "address"
            },
            {
              "internalType": "uint256",
              "name": "number",
              "type": "uint256"
            }
          ],
          "internalType": "struct Account.Info",
          "name": "account",
          "type": "tuple"
        },
        {
          "internalType": "bytes",
          "name": "data",
          "type": "bytes"
        }
      ],
      "name": "callFunction",
      "outputs": [],
      "payable": false,
      "stateMutability": "nonpayable",
      "type": "function"
    },
    {
      "constant": false,
      "inputs": [
        {
          "internalType": "address",
          "name": "_solo",
          "type": "address"
        },
        {
          "internalType": "address",
          "name": "_token",
          "type": "address"
        },
        {
          "internalType": "uint256",
          "name": "_amount",
          "type": "uint256"
        },
        {
          "internalType": "enum Flashloan.Direction",
          "name": "_direction",
          "type": "uint8"
        }
      ],
      "name": "initateFlashLoan",
      "outputs": [],
      "payable": false,
      "stateMutability": "nonpayable",
      "type": "function"
    }
  ],
  "bytecode": "0x60806040523480156200001157600080fd5b50604051620027993803806200279983398181016040526200003791908101906200019d565b846000806101000a81548173ffffffffffffffffffffffffffffffffffffffff021916908373ffffffffffffffffffffffffffffffffffffffff16021790555083600160006101000a81548173ffffffffffffffffffffffffffffffffffffffff021916908373ffffffffffffffffffffffffffffffffffffffff16021790555082600260006101000a81548173ffffffffffffffffffffffffffffffffffffffff021916908373ffffffffffffffffffffffffffffffffffffffff16021790555081600360006101000a81548173ffffffffffffffffffffffffffffffffffffffff021916908373ffffffffffffffffffffffffffffffffffffffff16021790555080600460006101000a81548173ffffffffffffffffffffffffffffffffffffffff021916908373ffffffffffffffffffffffffffffffffffffffff16021790555050505050506200026d565b600081519050620001978162000253565b92915050565b600080600080600060a08688031215620001b657600080fd5b6000620001c68882890162000186565b9550506020620001d98882890162000186565b9450506040620001ec8882890162000186565b9350506060620001ff8882890162000186565b9250506080620002128882890162000186565b9150509295509295909350565b60006200022c8262000233565b9050919050565b600073ffffffffffffffffffffffffffffffffffffffff82169050919050565b6200025e816200021f565b81146200026a57600080fd5b50565b61251c806200027d6000396000f3fe608060405234801561001057600080fd5b50600436106100365760003560e01c80638b4187131461003b578063f7b967a014610057575b600080fd5b610055600480360361005091908101906118cb565b610073565b005b610071600480360361006c9190810190611868565b610dbe565b005b61007b6114a0565b8180602001905161008f919081019061199c565b90506000600360009054906101000a900473ffffffffffffffffffffffffffffffffffffffff1673ffffffffffffffffffffffffffffffffffffffff166370a08231306040518263ffffffff1660e01b81526004016100ee9190611eef565b60206040518083038186803b15801561010657600080fd5b505afa15801561011a573d6000803e3d6000fd5b505050506040513d601f19601f8201168201806040525061013e91908101906119c5565b90508160200151811015610187576040517f08c379a000000000000000000000000000000000000000000000000000000000815260040161017e90612058565b60405180910390fd5b6000600181111561019457fe5b826000015160018111156101a457fe5b14156106d257600360009054906101000a900473ffffffffffffffffffffffffffffffffffffffff1673ffffffffffffffffffffffffffffffffffffffff1663095ea7b3600160009054906101000a900473ffffffffffffffffffffffffffffffffffffffff16836040518363ffffffff1660e01b8152600401610229929190611f0a565b602060405180830381600087803b15801561024357600080fd5b505af1158015610257573d6000803e3d6000fd5b505050506040513d601f19601f8201168201806040525061027b9190810190611973565b5060008060009054906101000a900473ffffffffffffffffffffffffffffffffffffffff1673ffffffffffffffffffffffffffffffffffffffff1663809a9e55600360009054906101000a900473ffffffffffffffffffffffffffffffffffffffff1673eeeeeeeeeeeeeeeeeeeeeeeeeeeeeeeeeeeeeeee856040518463ffffffff1660e01b815260040161031293929190611f6a565b604080518083038186803b15801561032957600080fd5b505afa15801561033d573d6000803e3d6000fd5b505050506040513d601f19601f8201168201806040525061036191908101906119ee565b5090506000809054906101000a900473ffffffffffffffffffffffffffffffffffffffff1673ffffffffffffffffffffffffffffffffffffffff16633bba21dc600360009054906101000a900473ffffffffffffffffffffffffffffffffffffffff1684846040518463ffffffff1660e01b81526004016103e493929190611fca565b602060405180830381600087803b1580156103fe57600080fd5b505af1158015610412573d6000803e3d6000fd5b505050506040513d601f19601f8201168201806040525061043691908101906119c5565b50606060026040519080825280602002602001820160405280156104695781602001602082028038833980820191505090505b509050600260009054906101000a900473ffffffffffffffffffffffffffffffffffffffff168160008151811061049c57fe5b602002602001019073ffffffffffffffffffffffffffffffffffffffff16908173ffffffffffffffffffffffffffffffffffffffff1681525050600360009054906101000a900473ffffffffffffffffffffffffffffffffffffffff168160018151811061050657fe5b602002602001019073ffffffffffffffffffffffffffffffffffffffff16908173ffffffffffffffffffffffffffffffffffffffff16815250506060600160009054906101000a900473ffffffffffffffffffffffffffffffffffffffff1673ffffffffffffffffffffffffffffffffffffffff1663d06ca61f60024703846040518363ffffffff1660e01b81526004016105a29291906120ce565b60006040518083038186803b1580156105ba57600080fd5b505afa1580156105ce573d6000803e3d6000fd5b505050506040513d6000823e3d601f19601f820116820180604052506105f79190810190611932565b9050600160009054906101000a900473ffffffffffffffffffffffffffffffffffffffff1673ffffffffffffffffffffffffffffffffffffffff16637ff36ab5600247038360008151811061064857fe5b60200260200101518530426040518663ffffffff1660e01b815260040161067294939291906120fe565b6000604051808303818588803b15801561068b57600080fd5b505af115801561069f573d6000803e3d6000fd5b50505050506040513d6000823e3d601f19601f820116820180604052506106c99190810190611932565b50505050610bf6565b600360009054906101000a900473ffffffffffffffffffffffffffffffffffffffff1673ffffffffffffffffffffffffffffffffffffffff1663095ea7b3600160009054906101000a900473ffffffffffffffffffffffffffffffffffffffff16836040518363ffffffff1660e01b8152600401610751929190611f0a565b602060405180830381600087803b15801561076b57600080fd5b505af115801561077f573d6000803e3d6000fd5b505050506040513d601f19601f820116820180604052506107a39190810190611973565b50606060026040519080825280602002602001820160405280156107d65781602001602082028038833980820191505090505b509050600360009054906101000a900473ffffffffffffffffffffffffffffffffffffffff168160008151811061080957fe5b602002602001019073ffffffffffffffffffffffffffffffffffffffff16908173ffffffffffffffffffffffffffffffffffffffff1681525050600260009054906101000a900473ffffffffffffffffffffffffffffffffffffffff168160018151811061087357fe5b602002602001019073ffffffffffffffffffffffffffffffffffffffff16908173ffffffffffffffffffffffffffffffffffffffff16815250506060600160009054906101000a900473ffffffffffffffffffffffffffffffffffffffff1673ffffffffffffffffffffffffffffffffffffffff1663d06ca61f84846040518363ffffffff1660e01b815260040161090c9291906120ce565b60006040518083038186803b15801561092457600080fd5b505afa158015610938573d6000803e3d6000fd5b505050506040513d6000823e3d601f19601f820116820180604052506109619190810190611932565b9050600160009054906101000a900473ffffffffffffffffffffffffffffffffffffffff1673ffffffffffffffffffffffffffffffffffffffff166318cbafe584836000815181106109af57fe5b60200260200101518530426040518663ffffffff1660e01b81526004016109da95949392919061214a565b600060405180830381600087803b1580156109f457600080fd5b505af1158015610a08573d6000803e3d6000fd5b505050506040513d6000823e3d601f19601f82011682018060405250610a319190810190611932565b5060008060009054906101000a900473ffffffffffffffffffffffffffffffffffffffff1673ffffffffffffffffffffffffffffffffffffffff1663809a9e5573eeeeeeeeeeeeeeeeeeeeeeeeeeeeeeeeeeeeeeee600360009054906101000a900473ffffffffffffffffffffffffffffffffffffffff16600247036040518463ffffffff1660e01b8152600401610acb93929190611f6a565b604080518083038186803b158015610ae257600080fd5b505afa158015610af6573d6000803e3d6000fd5b505050506040513d601f19601f82011682018060405250610b1a91908101906119ee565b5090506000809054906101000a900473ffffffffffffffffffffffffffffffffffffffff1673ffffffffffffffffffffffffffffffffffffffff16637a2a045660024703600360009054906101000a900473ffffffffffffffffffffffffffffffffffffffff16846040518463ffffffff1660e01b8152600401610b9f929190611fa1565b6020604051808303818588803b158015610bb857600080fd5b505af1158015610bcc573d6000803e3d6000fd5b50505050506040513d601f19601f82011682018060405250610bf191908101906119c5565b505050505b6000600360009054906101000a900473ffffffffffffffffffffffffffffffffffffffff1673ffffffffffffffffffffffffffffffffffffffff166370a08231306040518263ffffffff1660e01b8152600401610c539190611eef565b60206040518083038186803b158015610c6b57600080fd5b505afa158015610c7f573d6000803e3d6000fd5b505050506040513d601f19601f82011682018060405250610ca391908101906119c5565b9050600360009054906101000a900473ffffffffffffffffffffffffffffffffffffffff1673ffffffffffffffffffffffffffffffffffffffff1663a9059cbb600460009054906101000a900473ffffffffffffffffffffffffffffffffffffffff16836040518363ffffffff1660e01b8152600401610d24929190611f0a565b602060405180830381600087803b158015610d3e57600080fd5b505af1158015610d52573d6000803e3d6000fd5b505050506040513d601f19601f82011682018060405250610d769190810190611973565b507fa89b78c8d1240154beaf4b865d2d7cb794ac0f358c618aef3de102cf4a4ee42d83600001518242604051610dae93929190612001565b60405180910390a1505050505050565b60008490506000610dcf8686611027565b90506000610ddc856111d9565b90508573ffffffffffffffffffffffffffffffffffffffff1663095ea7b388836040518363ffffffff1660e01b8152600401610e19929190611f0a565b602060405180830381600087803b158015610e3357600080fd5b505af1158015610e47573d6000803e3d6000fd5b505050506040513d601f19601f82011682018060405250610e6b9190810190611973565b5060606003604051908082528060200260200182016040528015610ea957816020015b610e966114c5565b815260200190600190039081610e8e5790505b509050610eb683876111f6565b81600081518110610ec357fe5b6020026020010181905250610f156040518060400160405280876001811115610ee857fe5b815260200184815250604051602001610f019190612098565b6040516020818303038152906040526112af565b81600181518110610f2257fe5b6020026020010181905250610f378383611359565b81600281518110610f4457fe5b602002602001018190525060606001604051908082528060200260200182016040528015610f8c57816020015b610f79611531565b815260200190600190039081610f715790505b509050610f97611412565b81600081518110610fa457fe5b60200260200101819052508473ffffffffffffffffffffffffffffffffffffffff1663a67a6a4582846040518363ffffffff1660e01b8152600401610fea929190611f33565b600060405180830381600087803b15801561100457600080fd5b505af1158015611018573d6000803e3d6000fd5b50505050505050505050505050565b60008083905060008173ffffffffffffffffffffffffffffffffffffffff1663295c39a56040518163ffffffff1660e01b815260040160206040518083038186803b15801561107557600080fd5b505afa158015611089573d6000803e3d6000fd5b505050506040513d601f19601f820116820180604052506110ad91908101906119c5565b9050600080600090505b82811015611197578373ffffffffffffffffffffffffffffffffffffffff1663062bd3e9826040518263ffffffff1660e01b81526004016110f891906120b3565b60206040518083038186803b15801561111057600080fd5b505afa158015611124573d6000803e3d6000fd5b505050506040513d601f19601f82011682018060405250611148919081019061183f565b91508573ffffffffffffffffffffffffffffffffffffffff168273ffffffffffffffffffffffffffffffffffffffff16141561118a57809450505050506111d3565b80806001019150506110b7565b506040517f08c379a00000000000000000000000000000000000000000000000000000000081526004016111ca90612078565b60405180910390fd5b92915050565b60006111ef60028361144b90919063ffffffff16565b9050919050565b6111fe611561565b6040518061010001604052806001600881111561121757fe5b81526020016000815260200160405180608001604052806000151581526020016000600181111561124457fe5b81526020016000600181111561125657fe5b8152602001858152508152602001848152602001600081526020013073ffffffffffffffffffffffffffffffffffffffff1681526020016000815260200160405180602001604052806000815250815250905092915050565b6112b7611561565b6040518061010001604052806008808111156112cf57fe5b8152602001600081526020016040518060800160405280600015158152602001600060018111156112fc57fe5b81526020016000600181111561130e57fe5b81526020016000815250815260200160008152602001600081526020013073ffffffffffffffffffffffffffffffffffffffff16815260200160008152602001838152509050919050565b611361611561565b6040518061010001604052806000600881111561137a57fe5b8152602001600081526020016040518060800160405280600115158152602001600060018111156113a757fe5b8152602001600060018111156113b957fe5b8152602001858152508152602001848152602001600081526020013073ffffffffffffffffffffffffffffffffffffffff1681526020016000815260200160405180602001604052806000815250815250905092915050565b61141a6115cd565b60405180604001604052803073ffffffffffffffffffffffffffffffffffffffff1681526020016001815250905090565b600080828401905083811015611496576040517f08c379a000000000000000000000000000000000000000000000000000000000815260040161148d90612038565b60405180910390fd5b8091505092915050565b6040518060400160405280600060018111156114b857fe5b8152602001600081525090565b604051806101000160405280600060088111156114de57fe5b8152602001600081526020016114f26115fd565b81526020016000815260200160008152602001600073ffffffffffffffffffffffffffffffffffffffff16815260200160008152602001606081525090565b6040518060400160405280600073ffffffffffffffffffffffffffffffffffffffff168152602001600081525090565b6040518061010001604052806000600881111561157a57fe5b81526020016000815260200161158e6115fd565b81526020016000815260200160008152602001600073ffffffffffffffffffffffffffffffffffffffff16815260200160008152602001606081525090565b6040518060400160405280600073ffffffffffffffffffffffffffffffffffffffff168152602001600081525090565b60405180608001604052806000151581526020016000600181111561161e57fe5b81526020016000600181111561163057fe5b8152602001600081525090565b60008135905061164c81612484565b92915050565b60008151905061166181612484565b92915050565b600082601f83011261167857600080fd5b815161168b611686826121d1565b6121a4565b915081818352602084019350602081019050838560208402820111156116b057600080fd5b60005b838110156116e057816116c6888261182a565b8452602084019350602083019250506001810190506116b3565b5050505092915050565b6000815190506116f98161249b565b92915050565b600082601f83011261171057600080fd5b813561172361171e826121f9565b6121a4565b9150808252602083016020830185838301111561173f57600080fd5b61174a8382846123fd565b50505092915050565b600081359050611762816124b2565b92915050565b600081519050611777816124b2565b92915050565b60006040828403121561178f57600080fd5b61179960406121a4565b905060006117a984828501611768565b60008301525060206117bd8482850161182a565b60208301525092915050565b6000604082840312156117db57600080fd5b6117e560406121a4565b905060006117f58482850161163d565b600083015250602061180984828501611815565b60208301525092915050565b600081359050611824816124c2565b92915050565b600081519050611839816124c2565b92915050565b60006020828403121561185157600080fd5b600061185f84828501611652565b91505092915050565b6000806000806080858703121561187e57600080fd5b600061188c8782880161163d565b945050602061189d8782880161163d565b93505060406118ae87828801611815565b92505060606118bf87828801611753565b91505092959194509250565b6000806000608084860312156118e057600080fd5b60006118ee8682870161163d565b93505060206118ff868287016117c9565b925050606084013567ffffffffffffffff81111561191c57600080fd5b611928868287016116ff565b9150509250925092565b60006020828403121561194457600080fd5b600082015167ffffffffffffffff81111561195e57600080fd5b61196a84828501611667565b91505092915050565b60006020828403121561198557600080fd5b6000611993848285016116ea565b91505092915050565b6000604082840312156119ae57600080fd5b60006119bc8482850161177d565b91505092915050565b6000602082840312156119d757600080fd5b60006119e58482850161182a565b91505092915050565b60008060408385031215611a0157600080fd5b6000611a0f8582860161182a565b9250506020611a208582860161182a565b9150509250929050565b6000611a368383611a6e565b60208301905092915050565b6000611a4e8383611d6b565b905092915050565b6000611a628383611ea2565b60408301905092915050565b611a77816122fd565b82525050565b611a86816122fd565b82525050565b6000611a9782612255565b611aa181856122a8565b9350611aac83612225565b8060005b83811015611add578151611ac48882611a2a565b9750611acf83612281565b925050600181019050611ab0565b5085935050505092915050565b6000611af582612260565b611aff81856122b9565b935083602082028501611b1185612235565b8060005b85811015611b4d5784840389528151611b2e8582611a42565b9450611b398361228e565b925060208a01995050600181019050611b15565b50829750879550505050505092915050565b6000611b6a8261226b565b611b7481856122ca565b9350611b7f83612245565b8060005b83811015611bb0578151611b978882611a56565b9750611ba28361229b565b925050600181019050611b83565b5085935050505092915050565b611bc68161230f565b82525050565b6000611bd782612276565b611be181856122db565b9350611bf181856020860161240c565b611bfa8161243f565b840191505092915050565b611c0e81612391565b82525050565b611c1d816123b5565b82525050565b611c2c816123c7565b82525050565b611c3b816123d9565b82525050565b611c4a816123eb565b82525050565b611c59816123eb565b82525050565b6000611c6c601b836122ec565b91507f536166654d6174683a206164646974696f6e206f766572666c6f7700000000006000830152602082019050919050565b6000611cac6024836122ec565b91507f4e6f7420656e6f7567682066756e647320746f2072657061792064796478206c60008301527f6f616e21000000000000000000000000000000000000000000000000000000006020830152604082019050919050565b6000611d126024836122ec565b91507f4e6f206d61726b6574496420666f756e6420666f722070726f7669646564207460008301527f6f6b656e000000000000000000000000000000000000000000000000000000006020830152604082019050919050565b600061016083016000830151611d846000860182611c14565b506020830151611d976020860182611ed1565b506040830151611daa6040860182611e4d565b506060830151611dbd60c0860182611ed1565b506080830151611dd060e0860182611ed1565b5060a0830151611de4610100860182611a6e565b5060c0830151611df8610120860182611ed1565b5060e0830151848203610140860152611e118282611bcc565b9150508091505092915050565b604082016000820151611e346000850182611c41565b506020820151611e476020850182611ed1565b50505050565b608082016000820151611e636000850182611bbd565b506020820151611e766020850182611c23565b506040820151611e896040850182611c32565b506060820151611e9c6060850182611ed1565b50505050565b604082016000820151611eb86000850182611a6e565b506020820151611ecb6020850182611ed1565b50505050565b611eda81612387565b82525050565b611ee981612387565b82525050565b6000602082019050611f046000830184611a7d565b92915050565b6000604082019050611f1f6000830185611a7d565b611f2c6020830184611ee0565b9392505050565b60006040820190508181036000830152611f4d8185611b5f565b90508181036020830152611f618184611aea565b90509392505050565b6000606082019050611f7f6000830186611c05565b611f8c6020830185611c05565b611f996040830184611ee0565b949350505050565b6000604082019050611fb66000830185611c05565b611fc36020830184611ee0565b9392505050565b6000606082019050611fdf6000830186611c05565b611fec6020830185611ee0565b611ff96040830184611ee0565b949350505050565b60006060820190506120166000830186611c50565b6120236020830185611ee0565b6120306040830184611ee0565b949350505050565b6000602082019050818103600083015261205181611c5f565b9050919050565b6000602082019050818103600083015261207181611c9f565b9050919050565b6000602082019050818103600083015261209181611d05565b9050919050565b60006040820190506120ad6000830184611e1e565b92915050565b60006020820190506120c86000830184611ee0565b92915050565b60006040820190506120e36000830185611ee0565b81810360208301526120f58184611a8c565b90509392505050565b60006080820190506121136000830187611ee0565b81810360208301526121258186611a8c565b90506121346040830185611a7d565b6121416060830184611ee0565b95945050505050565b600060a08201905061215f6000830188611ee0565b61216c6020830187611ee0565b818103604083015261217e8186611a8c565b905061218d6060830185611a7d565b61219a6080830184611ee0565b9695505050505050565b6000604051905081810181811067ffffffffffffffff821117156121c757600080fd5b8060405250919050565b600067ffffffffffffffff8211156121e857600080fd5b602082029050602081019050919050565b600067ffffffffffffffff82111561221057600080fd5b601f19601f8301169050602081019050919050565b6000819050602082019050919050565b6000819050602082019050919050565b6000819050602082019050919050565b600081519050919050565b600081519050919050565b600081519050919050565b600081519050919050565b6000602082019050919050565b6000602082019050919050565b6000602082019050919050565b600082825260208201905092915050565b600082825260208201905092915050565b600082825260208201905092915050565b600082825260208201905092915050565b600082825260208201905092915050565b600061230882612367565b9050919050565b60008115159050919050565b600081905061232982612450565b919050565b600081905061233c8261245d565b919050565b600081905061234f8261246a565b919050565b600081905061236282612477565b919050565b600073ffffffffffffffffffffffffffffffffffffffff82169050919050565b6000819050919050565b600061239c826123a3565b9050919050565b60006123ae82612367565b9050919050565b60006123c08261231b565b9050919050565b60006123d28261232e565b9050919050565b60006123e482612341565b9050919050565b60006123f682612354565b9050919050565b82818337600083830152505050565b60005b8381101561242a57808201518184015260208101905061240f565b83811115612439576000848401525b50505050565b6000601f19601f8301169050919050565b6009811061245a57fe5b50565b6002811061246757fe5b50565b6002811061247457fe5b50565b6002811061248157fe5b50565b61248d816122fd565b811461249857600080fd5b50565b6124a48161230f565b81146124af57600080fd5b50565b600281106124bf57600080fd5b50565b6124cb81612387565b81146124d657600080fd5b5056fea365627a7a723158200bf90906a1fcd3991ef0fb3597767aaf2ef23da167a58476c557a07b26450a0f6c6578706572696d656e74616cf564736f6c63430005100040",
  "source": "pragma solidity ^0.5.0;\r\npragma experimental ABIEncoderV2;\r\n\r\nimport \"@studydefi/money-legos/dydx/contracts/DydxFlashloanBase.sol\";\r\nimport \"@studydefi/money-legos/dydx/contracts/ICallee.sol\";\r\nimport { KyberNetworkProxy as IKyberNetworkProxy } from '@studydefi/money-legos/kyber/contracts/KyberNetworkProxy.sol';\r\n\r\nimport \"@openzeppelin/contracts/token/ERC20/IERC20.sol\";\r\nimport './IUniswapV2Router02.sol';\r\nimport './IWeth.sol';\r\n\r\ncontract Flashloan is ICallee, DydxFlashloanBase {\r\n    enum Direction { KyberToUniswap, UniswapToKyber } \r\n    struct ArbInfo {\r\n        Direction direction;\r\n        uint repayAmount;\r\n    }\r\n\r\n    event NewArbitrage (\r\n      Direction direction,\r\n      uint profit,\r\n      uint date\r\n    );\r\n\r\n    IKyberNetworkProxy kyber;\r\n    IUniswapV2Router02 uniswap;\r\n    IWeth weth;\r\n    IERC20 dai;\r\n    address beneficiary;\r\n    address constant KYBER_ETH_ADDRESS = 0xEeeeeEeeeEeEeeEeEeEeeEEEeeeeEeeeeeeeEEeE;\r\n\r\n    constructor(\r\n        address kyberAddress,\r\n        address uniswapAddress,\r\n        address wethAddress,\r\n        address daiAddress,\r\n        address beneficiaryAddress\r\n    ) public {\r\n      kyber = IKyberNetworkProxy(kyberAddress);\r\n      uniswap = IUniswapV2Router02(uniswapAddress);\r\n      weth = IWeth(wethAddress);\r\n      dai = IERC20(daiAddress);\r\n      beneficiary = beneficiaryAddress;\r\n    }\r\n\r\n    // This is the function that will be called postLoan\r\n    // i.e. Encode the logic to handle your flashloaned funds here\r\n    function callFunction(\r\n        address sender,\r\n        Account.Info memory account,\r\n        bytes memory data\r\n    ) public {\r\n        ArbInfo memory arbInfo = abi.decode(data, (ArbInfo));\r\n        uint256 balanceDai = dai.balanceOf(address(this));\r\n\r\n        // Note that you can ignore the line below\r\n        // if your dydx account (this contract in this case)\r\n        // has deposited at least ~2 Wei of assets into the account\r\n        // to balance out the collaterization ratio\r\n        require(\r\n            balanceDai >= arbInfo.repayAmount,\r\n            \"Not enough funds to repay dydx loan!\"\r\n        );\r\n\r\n        if(arbInfo.direction == Direction.KyberToUniswap) {\r\n          //Buy ETH on Kyber\r\n          dai.approve(address(uniswap), balanceDai); \r\n          (uint expectedRate, ) = kyber.getExpectedRate(\r\n            dai, \r\n            IERC20(KYBER_ETH_ADDRESS), \r\n            balanceDai\r\n          );\r\n          kyber.swapTokenToEther(dai, balanceDai, expectedRate);\r\n\r\n          //Sell ETH on Uniswap\r\n          address[] memory path = new address[](2);\r\n          path[0] = address(weth);\r\n          path[1] = address(dai);\r\n          uint[] memory minOuts = uniswap.getAmountsOut(address(this).balance - 2, path); \r\n          uniswap.swapExactETHForTokens.value(address(this).balance - 2)(\r\n            minOuts[0], \r\n            path, \r\n            address(this), \r\n            now\r\n          );\r\n        } else {\r\n          //Buy ETH on Uniswap\r\n          dai.approve(address(uniswap), balanceDai); \r\n          address[] memory path = new address[](2);\r\n          path[0] = address(dai);\r\n          path[1] = address(weth);\r\n          uint[] memory minOuts = uniswap.getAmountsOut(balanceDai, path); \r\n          uniswap.swapExactTokensForETH(\r\n            balanceDai, \r\n            minOuts[0], \r\n            path, \r\n            address(this), \r\n            now\r\n          );\r\n\r\n          //Sell ETH on Kyber\r\n          (uint expectedRate, ) = kyber.getExpectedRate(\r\n            IERC20(KYBER_ETH_ADDRESS), \r\n            dai, \r\n            address(this).balance - 2\r\n          );\r\n          kyber.swapEtherToToken.value(address(this).balance - 2)(\r\n            dai, \r\n            expectedRate\r\n          );\r\n        }\r\n        uint profit = dai.balanceOf(address(this)); \r\n        dai.transfer(beneficiary, profit);\r\n        emit NewArbitrage(arbInfo.direction, profit, now);\r\n    }\r\n\r\n    function initateFlashLoan(\r\n      address _solo, \r\n      address _token, \r\n      uint256 _amount, \r\n      Direction _direction)\r\n        external\r\n    {\r\n        ISoloMargin solo = ISoloMargin(_solo);\r\n\r\n        // Get marketId from token address\r\n        uint256 marketId = _getMarketIdFromTokenAddress(_solo, _token);\r\n\r\n        // Calculate repay amount (_amount + (2 wei))\r\n        // Approve transfer from\r\n        uint256 repayAmount = _getRepaymentAmountInternal(_amount);\r\n        IERC20(_token).approve(_solo, repayAmount);\r\n\r\n        // 1. Withdraw $\r\n        // 2. Call callFunction(...)\r\n        // 3. Deposit back $\r\n        Actions.ActionArgs[] memory operations = new Actions.ActionArgs[](3);\r\n\r\n        operations[0] = _getWithdrawAction(marketId, _amount);\r\n        operations[1] = _getCallAction(\r\n            // Encode MyCustomData for callFunction\r\n            abi.encode(ArbInfo({direction: _direction, repayAmount: repayAmount}))\r\n        );\r\n        operations[2] = _getDepositAction(marketId, repayAmount);\r\n\r\n        Account.Info[] memory accountInfos = new Account.Info[](1);\r\n        accountInfos[0] = _getAccountInfo();\r\n\r\n        solo.operate(accountInfos, operations);\r\n    }\r\n}\r\n",
  "sourcePath": "C:\\Users\\Noah\\flashLoans\\profitable-flashloans\\contracts\\Flashloan.sol",
  "compiler": {
    "name": "solc",
    "version": "0.5.16+commit.9c3226ce.Emscripten.clang"
  },
  "schemaVersion": "3.2.1",
  "updatedAt": "2020-07-05T01:57:05.593Z",
  "devdoc": {
    "methods": {}
  },
  "userdoc": {
    "methods": {}
  }
}