{
  "contractName": "Flashloan",
  "abi": [
    {
      "inputs": [
        {
          "internalType": "address",
          "name": "kyberAddress",
          "type": "address"
        },
        {
          "internalType": "address",
          "name": "uniswapAddress",
          "type": "address"
        },
        {
          "internalType": "address",
          "name": "wethAddress",
          "type": "address"
        },
        {
          "internalType": "address",
          "name": "daiAddress",
          "type": "address"
        },
        {
          "internalType": "address",
          "name": "beneficiaryAddress",
          "type": "address"
        }
      ],
      "payable": false,
      "stateMutability": "nonpayable",
      "type": "constructor"
    },
    {
      "anonymous": false,
      "inputs": [
        {
          "indexed": false,
          "internalType": "enum Flashloan.Direction",
          "name": "direction",
          "type": "uint8"
        },
        {
          "indexed": false,
          "internalType": "uint256",
          "name": "profit",
          "type": "uint256"
        },
        {
          "indexed": false,
          "internalType": "uint256",
          "name": "date",
          "type": "uint256"
        }
      ],
      "name": "NewArbitrage",
      "type": "event"
    },
    {
      "constant": false,
      "inputs": [
        {
          "internalType": "address",
          "name": "sender",
          "type": "address"
        },
        {
          "components": [
            {
              "internalType": "address",
              "name": "owner",
              "type": "address"
            },
            {
              "internalType": "uint256",
              "name": "number",
              "type": "uint256"
            }
          ],
          "internalType": "struct Account.Info",
          "name": "account",
          "type": "tuple"
        },
        {
          "internalType": "bytes",
          "name": "data",
          "type": "bytes"
        }
      ],
      "name": "callFunction",
      "outputs": [],
      "payable": false,
      "stateMutability": "nonpayable",
      "type": "function"
    },
    {
      "constant": false,
      "inputs": [
        {
          "internalType": "address",
          "name": "_solo",
          "type": "address"
        },
        {
          "internalType": "address",
          "name": "_token",
          "type": "address"
        },
        {
          "internalType": "uint256",
          "name": "_amount",
          "type": "uint256"
        },
        {
          "internalType": "enum Flashloan.Direction",
          "name": "_direction",
          "type": "uint8"
        }
      ],
      "name": "initiateFlashloan",
      "outputs": [],
      "payable": false,
      "stateMutability": "nonpayable",
      "type": "function"
    }
  ],
  "bytecode": "0x60806040526eb3f879cb30fe243b4dfee438691c04600560006101000a81548173ffffffffffffffffffffffffffffffffffffffff021916908373ffffffffffffffffffffffffffffffffffffffff1602179055503480156200006157600080fd5b5060405162002e1938038062002e198339818101604052620000879190810190620001ed565b846000806101000a81548173ffffffffffffffffffffffffffffffffffffffff021916908373ffffffffffffffffffffffffffffffffffffffff16021790555083600160006101000a81548173ffffffffffffffffffffffffffffffffffffffff021916908373ffffffffffffffffffffffffffffffffffffffff16021790555082600260006101000a81548173ffffffffffffffffffffffffffffffffffffffff021916908373ffffffffffffffffffffffffffffffffffffffff16021790555081600360006101000a81548173ffffffffffffffffffffffffffffffffffffffff021916908373ffffffffffffffffffffffffffffffffffffffff16021790555080600460006101000a81548173ffffffffffffffffffffffffffffffffffffffff021916908373ffffffffffffffffffffffffffffffffffffffff1602179055505050505050620002bd565b600081519050620001e781620002a3565b92915050565b600080600080600060a086880312156200020657600080fd5b60006200021688828901620001d6565b95505060206200022988828901620001d6565b94505060406200023c88828901620001d6565b93505060606200024f88828901620001d6565b92505060806200026288828901620001d6565b9150509295509295909350565b60006200027c8262000283565b9050919050565b600073ffffffffffffffffffffffffffffffffffffffff82169050919050565b620002ae816200026f565b8114620002ba57600080fd5b50565b612b4c80620002cd6000396000f3fe608060405234801561001057600080fd5b50600436106100365760003560e01c80638b4187131461003b578063c013147614610057575b600080fd5b61005560048036036100509190810190611efb565b610073565b005b610071600480360361006c9190810190611e98565b6111e0565b005b61007b611ad0565b8180602001905161008f9190810190611fcc565b90506000600360009054906101000a900473ffffffffffffffffffffffffffffffffffffffff1673ffffffffffffffffffffffffffffffffffffffff166370a08231306040518263ffffffff1660e01b81526004016100ee919061251f565b60206040518083038186803b15801561010657600080fd5b505afa15801561011a573d6000803e3d6000fd5b505050506040513d601f19601f8201168201806040525061013e9190810190611ff5565b90508160200151811015610187576040517f08c379a000000000000000000000000000000000000000000000000000000000815260040161017e90612688565b60405180910390fd5b6000600181111561019457fe5b826000015160018111156101a457fe5b14156108e057600360009054906101000a900473ffffffffffffffffffffffffffffffffffffffff1673ffffffffffffffffffffffffffffffffffffffff1663095ea7b3600160009054906101000a900473ffffffffffffffffffffffffffffffffffffffff16836040518363ffffffff1660e01b815260040161022992919061253a565b602060405180830381600087803b15801561024357600080fd5b505af1158015610257573d6000803e3d6000fd5b505050506040513d601f19601f8201168201806040525061027b9190810190611fa3565b5060008060009054906101000a900473ffffffffffffffffffffffffffffffffffffffff1673ffffffffffffffffffffffffffffffffffffffff1663809a9e55600360009054906101000a900473ffffffffffffffffffffffffffffffffffffffff1673eeeeeeeeeeeeeeeeeeeeeeeeeeeeeeeeeeeeeeee856040518463ffffffff1660e01b81526004016103129392919061259a565b604080518083038186803b15801561032957600080fd5b505afa15801561033d573d6000803e3d6000fd5b505050506040513d601f19601f82011682018060405250610361919081019061201e565b5090506000809054906101000a900473ffffffffffffffffffffffffffffffffffffffff1673ffffffffffffffffffffffffffffffffffffffff16633bba21dc600360009054906101000a900473ffffffffffffffffffffffffffffffffffffffff1684846040518463ffffffff1660e01b81526004016103e4939291906125fa565b602060405180830381600087803b1580156103fe57600080fd5b505af1158015610412573d6000803e3d6000fd5b505050506040513d601f19601f820116820180604052506104369190810190611ff5565b50606060026040519080825280602002602001820160405280156104695781602001602082028038833980820191505090505b509050600260009054906101000a900473ffffffffffffffffffffffffffffffffffffffff168160008151811061049c57fe5b602002602001019073ffffffffffffffffffffffffffffffffffffffff16908173ffffffffffffffffffffffffffffffffffffffff1681525050600360009054906101000a900473ffffffffffffffffffffffffffffffffffffffff168160018151811061050657fe5b602002602001019073ffffffffffffffffffffffffffffffffffffffff16908173ffffffffffffffffffffffffffffffffffffffff16815250506060600160009054906101000a900473ffffffffffffffffffffffffffffffffffffffff1673ffffffffffffffffffffffffffffffffffffffff1663d06ca61f60024703846040518363ffffffff1660e01b81526004016105a29291906126fe565b60006040518083038186803b1580156105ba57600080fd5b505afa1580156105ce573d6000803e3d6000fd5b505050506040513d6000823e3d601f19601f820116820180604052506105f79190810190611f62565b9050600160009054906101000a900473ffffffffffffffffffffffffffffffffffffffff1673ffffffffffffffffffffffffffffffffffffffff16637ff36ab5600247038360008151811061064857fe5b60200260200101518530426040518663ffffffff1660e01b8152600401610672949392919061272e565b6000604051808303818588803b15801561068b57600080fd5b505af115801561069f573d6000803e3d6000fd5b50505050506040513d6000823e3d601f19601f820116820180604052506106c99190810190611f62565b506000600560009054906101000a900473ffffffffffffffffffffffffffffffffffffffff1673ffffffffffffffffffffffffffffffffffffffff166370a08231306040518263ffffffff1660e01b8152600401610727919061251f565b60206040518083038186803b15801561073f57600080fd5b505afa158015610753573d6000803e3d6000fd5b505050506040513d601f19601f820116820180604052506107779190810190611ff5565b11156108d857600560009054906101000a900473ffffffffffffffffffffffffffffffffffffffff1673ffffffffffffffffffffffffffffffffffffffff1663079d229f30600560009054906101000a900473ffffffffffffffffffffffffffffffffffffffff1673ffffffffffffffffffffffffffffffffffffffff166370a08231306040518263ffffffff1660e01b8152600401610817919061251f565b60206040518083038186803b15801561082f57600080fd5b505afa158015610843573d6000803e3d6000fd5b505050506040513d601f19601f820116820180604052506108679190810190611ff5565b6040518363ffffffff1660e01b815260040161088492919061253a565b602060405180830381600087803b15801561089e57600080fd5b505af11580156108b2573d6000803e3d6000fd5b505050506040513d601f19601f820116820180604052506108d69190810190611ff5565b505b505050611012565b600360009054906101000a900473ffffffffffffffffffffffffffffffffffffffff1673ffffffffffffffffffffffffffffffffffffffff1663095ea7b3600160009054906101000a900473ffffffffffffffffffffffffffffffffffffffff16836040518363ffffffff1660e01b815260040161095f92919061253a565b602060405180830381600087803b15801561097957600080fd5b505af115801561098d573d6000803e3d6000fd5b505050506040513d601f19601f820116820180604052506109b19190810190611fa3565b50606060026040519080825280602002602001820160405280156109e45781602001602082028038833980820191505090505b509050600360009054906101000a900473ffffffffffffffffffffffffffffffffffffffff1681600081518110610a1757fe5b602002602001019073ffffffffffffffffffffffffffffffffffffffff16908173ffffffffffffffffffffffffffffffffffffffff1681525050600260009054906101000a900473ffffffffffffffffffffffffffffffffffffffff1681600181518110610a8157fe5b602002602001019073ffffffffffffffffffffffffffffffffffffffff16908173ffffffffffffffffffffffffffffffffffffffff16815250506060600160009054906101000a900473ffffffffffffffffffffffffffffffffffffffff1673ffffffffffffffffffffffffffffffffffffffff1663d06ca61f84846040518363ffffffff1660e01b8152600401610b1a9291906126fe565b60006040518083038186803b158015610b3257600080fd5b505afa158015610b46573d6000803e3d6000fd5b505050506040513d6000823e3d601f19601f82011682018060405250610b6f9190810190611f62565b9050600160009054906101000a900473ffffffffffffffffffffffffffffffffffffffff1673ffffffffffffffffffffffffffffffffffffffff166318cbafe58483600081518110610bbd57fe5b60200260200101518530426040518663ffffffff1660e01b8152600401610be895949392919061277a565b600060405180830381600087803b158015610c0257600080fd5b505af1158015610c16573d6000803e3d6000fd5b505050506040513d6000823e3d601f19601f82011682018060405250610c3f9190810190611f62565b5060008060009054906101000a900473ffffffffffffffffffffffffffffffffffffffff1673ffffffffffffffffffffffffffffffffffffffff1663809a9e5573eeeeeeeeeeeeeeeeeeeeeeeeeeeeeeeeeeeeeeee600360009054906101000a900473ffffffffffffffffffffffffffffffffffffffff16600247036040518463ffffffff1660e01b8152600401610cd99392919061259a565b604080518083038186803b158015610cf057600080fd5b505afa158015610d04573d6000803e3d6000fd5b505050506040513d601f19601f82011682018060405250610d28919081019061201e565b5090506000809054906101000a900473ffffffffffffffffffffffffffffffffffffffff1673ffffffffffffffffffffffffffffffffffffffff16637a2a045660024703600360009054906101000a900473ffffffffffffffffffffffffffffffffffffffff16846040518463ffffffff1660e01b8152600401610dad9291906125d1565b6020604051808303818588803b158015610dc657600080fd5b505af1158015610dda573d6000803e3d6000fd5b50505050506040513d601f19601f82011682018060405250610dff9190810190611ff5565b506000600560009054906101000a900473ffffffffffffffffffffffffffffffffffffffff1673ffffffffffffffffffffffffffffffffffffffff166370a08231306040518263ffffffff1660e01b8152600401610e5d919061251f565b60206040518083038186803b158015610e7557600080fd5b505afa158015610e89573d6000803e3d6000fd5b505050506040513d601f19601f82011682018060405250610ead9190810190611ff5565b111561100e57600560009054906101000a900473ffffffffffffffffffffffffffffffffffffffff1673ffffffffffffffffffffffffffffffffffffffff1663079d229f30600560009054906101000a900473ffffffffffffffffffffffffffffffffffffffff1673ffffffffffffffffffffffffffffffffffffffff166370a08231306040518263ffffffff1660e01b8152600401610f4d919061251f565b60206040518083038186803b158015610f6557600080fd5b505afa158015610f79573d6000803e3d6000fd5b505050506040513d601f19601f82011682018060405250610f9d9190810190611ff5565b6040518363ffffffff1660e01b8152600401610fba92919061253a565b602060405180830381600087803b158015610fd457600080fd5b505af1158015610fe8573d6000803e3d6000fd5b505050506040513d601f19601f8201168201806040525061100c9190810190611ff5565b505b5050505b60008260200151600360009054906101000a900473ffffffffffffffffffffffffffffffffffffffff1673ffffffffffffffffffffffffffffffffffffffff166370a08231306040518263ffffffff1660e01b8152600401611074919061251f565b60206040518083038186803b15801561108c57600080fd5b505afa1580156110a0573d6000803e3d6000fd5b505050506040513d601f19601f820116820180604052506110c49190810190611ff5565b039050600360009054906101000a900473ffffffffffffffffffffffffffffffffffffffff1673ffffffffffffffffffffffffffffffffffffffff1663a9059cbb600460009054906101000a900473ffffffffffffffffffffffffffffffffffffffff16836040518363ffffffff1660e01b815260040161114692919061253a565b602060405180830381600087803b15801561116057600080fd5b505af1158015611174573d6000803e3d6000fd5b505050506040513d601f19601f820116820180604052506111989190810190611fa3565b507fa89b78c8d1240154beaf4b865d2d7cb794ac0f358c618aef3de102cf4a4ee42d836000015182426040516111d093929190612631565b60405180910390a1505050505050565b600084905060006111f18686611657565b905060006111fe85611809565b90508573ffffffffffffffffffffffffffffffffffffffff1663095ea7b388836040518363ffffffff1660e01b815260040161123b92919061253a565b602060405180830381600087803b15801561125557600080fd5b505af1158015611269573d6000803e3d6000fd5b505050506040513d601f19601f8201168201806040525061128d9190810190611fa3565b50606060036040519080825280602002602001820160405280156112cb57816020015b6112b8611af5565b8152602001906001900390816112b05790505b5090506112d88387611826565b816000815181106112e557fe5b6020026020010181905250611337604051806040016040528087600181111561130a57fe5b81526020018481525060405160200161132391906126c8565b6040516020818303038152906040526118df565b8160018151811061134457fe5b60200260200101819052506113598383611989565b8160028151811061136657fe5b6020026020010181905250606060016040519080825280602002602001820160405280156113ae57816020015b61139b611b61565b8152602001906001900390816113935790505b5090506113b9611a42565b816000815181106113c657fe5b60200260200101819052508473ffffffffffffffffffffffffffffffffffffffff1663a67a6a4582846040518363ffffffff1660e01b815260040161140c929190612563565b600060405180830381600087803b15801561142657600080fd5b505af115801561143a573d6000803e3d6000fd5b505050506000600560009054906101000a900473ffffffffffffffffffffffffffffffffffffffff1673ffffffffffffffffffffffffffffffffffffffff166370a08231306040518263ffffffff1660e01b815260040161149b919061251f565b60206040518083038186803b1580156114b357600080fd5b505afa1580156114c7573d6000803e3d6000fd5b505050506040513d601f19601f820116820180604052506114eb9190810190611ff5565b111561164c57600560009054906101000a900473ffffffffffffffffffffffffffffffffffffffff1673ffffffffffffffffffffffffffffffffffffffff1663079d229f30600560009054906101000a900473ffffffffffffffffffffffffffffffffffffffff1673ffffffffffffffffffffffffffffffffffffffff166370a08231306040518263ffffffff1660e01b815260040161158b919061251f565b60206040518083038186803b1580156115a357600080fd5b505afa1580156115b7573d6000803e3d6000fd5b505050506040513d601f19601f820116820180604052506115db9190810190611ff5565b6040518363ffffffff1660e01b81526004016115f892919061253a565b602060405180830381600087803b15801561161257600080fd5b505af1158015611626573d6000803e3d6000fd5b505050506040513d601f19601f8201168201806040525061164a9190810190611ff5565b505b505050505050505050565b60008083905060008173ffffffffffffffffffffffffffffffffffffffff1663295c39a56040518163ffffffff1660e01b815260040160206040518083038186803b1580156116a557600080fd5b505afa1580156116b9573d6000803e3d6000fd5b505050506040513d601f19601f820116820180604052506116dd9190810190611ff5565b9050600080600090505b828110156117c7578373ffffffffffffffffffffffffffffffffffffffff1663062bd3e9826040518263ffffffff1660e01b815260040161172891906126e3565b60206040518083038186803b15801561174057600080fd5b505afa158015611754573d6000803e3d6000fd5b505050506040513d601f19601f820116820180604052506117789190810190611e6f565b91508573ffffffffffffffffffffffffffffffffffffffff168273ffffffffffffffffffffffffffffffffffffffff1614156117ba5780945050505050611803565b80806001019150506116e7565b506040517f08c379a00000000000000000000000000000000000000000000000000000000081526004016117fa906126a8565b60405180910390fd5b92915050565b600061181f600283611a7b90919063ffffffff16565b9050919050565b61182e611b91565b6040518061010001604052806001600881111561184757fe5b81526020016000815260200160405180608001604052806000151581526020016000600181111561187457fe5b81526020016000600181111561188657fe5b8152602001858152508152602001848152602001600081526020013073ffffffffffffffffffffffffffffffffffffffff1681526020016000815260200160405180602001604052806000815250815250905092915050565b6118e7611b91565b6040518061010001604052806008808111156118ff57fe5b81526020016000815260200160405180608001604052806000151581526020016000600181111561192c57fe5b81526020016000600181111561193e57fe5b81526020016000815250815260200160008152602001600081526020013073ffffffffffffffffffffffffffffffffffffffff16815260200160008152602001838152509050919050565b611991611b91565b604051806101000160405280600060088111156119aa57fe5b8152602001600081526020016040518060800160405280600115158152602001600060018111156119d757fe5b8152602001600060018111156119e957fe5b8152602001858152508152602001848152602001600081526020013073ffffffffffffffffffffffffffffffffffffffff1681526020016000815260200160405180602001604052806000815250815250905092915050565b611a4a611bfd565b60405180604001604052803073ffffffffffffffffffffffffffffffffffffffff1681526020016001815250905090565b600080828401905083811015611ac6576040517f08c379a0000000000000000000000000000000000000000000000000000000008152600401611abd90612668565b60405180910390fd5b8091505092915050565b604051806040016040528060006001811115611ae857fe5b8152602001600081525090565b60405180610100016040528060006008811115611b0e57fe5b815260200160008152602001611b22611c2d565b81526020016000815260200160008152602001600073ffffffffffffffffffffffffffffffffffffffff16815260200160008152602001606081525090565b6040518060400160405280600073ffffffffffffffffffffffffffffffffffffffff168152602001600081525090565b60405180610100016040528060006008811115611baa57fe5b815260200160008152602001611bbe611c2d565b81526020016000815260200160008152602001600073ffffffffffffffffffffffffffffffffffffffff16815260200160008152602001606081525090565b6040518060400160405280600073ffffffffffffffffffffffffffffffffffffffff168152602001600081525090565b604051806080016040528060001515815260200160006001811115611c4e57fe5b815260200160006001811115611c6057fe5b8152602001600081525090565b600081359050611c7c81612ab4565b92915050565b600081519050611c9181612ab4565b92915050565b600082601f830112611ca857600080fd5b8151611cbb611cb682612801565b6127d4565b91508181835260208401935060208101905083856020840282011115611ce057600080fd5b60005b83811015611d105781611cf68882611e5a565b845260208401935060208301925050600181019050611ce3565b5050505092915050565b600081519050611d2981612acb565b92915050565b600082601f830112611d4057600080fd5b8135611d53611d4e82612829565b6127d4565b91508082526020830160208301858383011115611d6f57600080fd5b611d7a838284612a2d565b50505092915050565b600081359050611d9281612ae2565b92915050565b600081519050611da781612ae2565b92915050565b600060408284031215611dbf57600080fd5b611dc960406127d4565b90506000611dd984828501611d98565b6000830152506020611ded84828501611e5a565b60208301525092915050565b600060408284031215611e0b57600080fd5b611e1560406127d4565b90506000611e2584828501611c6d565b6000830152506020611e3984828501611e45565b60208301525092915050565b600081359050611e5481612af2565b92915050565b600081519050611e6981612af2565b92915050565b600060208284031215611e8157600080fd5b6000611e8f84828501611c82565b91505092915050565b60008060008060808587031215611eae57600080fd5b6000611ebc87828801611c6d565b9450506020611ecd87828801611c6d565b9350506040611ede87828801611e45565b9250506060611eef87828801611d83565b91505092959194509250565b600080600060808486031215611f1057600080fd5b6000611f1e86828701611c6d565b9350506020611f2f86828701611df9565b925050606084013567ffffffffffffffff811115611f4c57600080fd5b611f5886828701611d2f565b9150509250925092565b600060208284031215611f7457600080fd5b600082015167ffffffffffffffff811115611f8e57600080fd5b611f9a84828501611c97565b91505092915050565b600060208284031215611fb557600080fd5b6000611fc384828501611d1a565b91505092915050565b600060408284031215611fde57600080fd5b6000611fec84828501611dad565b91505092915050565b60006020828403121561200757600080fd5b600061201584828501611e5a565b91505092915050565b6000806040838503121561203157600080fd5b600061203f85828601611e5a565b925050602061205085828601611e5a565b9150509250929050565b6000612066838361209e565b60208301905092915050565b600061207e838361239b565b905092915050565b600061209283836124d2565b60408301905092915050565b6120a78161292d565b82525050565b6120b68161292d565b82525050565b60006120c782612885565b6120d181856128d8565b93506120dc83612855565b8060005b8381101561210d5781516120f4888261205a565b97506120ff836128b1565b9250506001810190506120e0565b5085935050505092915050565b600061212582612890565b61212f81856128e9565b93508360208202850161214185612865565b8060005b8581101561217d578484038952815161215e8582612072565b9450612169836128be565b925060208a01995050600181019050612145565b50829750879550505050505092915050565b600061219a8261289b565b6121a481856128fa565b93506121af83612875565b8060005b838110156121e05781516121c78882612086565b97506121d2836128cb565b9250506001810190506121b3565b5085935050505092915050565b6121f68161293f565b82525050565b6000612207826128a6565b612211818561290b565b9350612221818560208601612a3c565b61222a81612a6f565b840191505092915050565b61223e816129c1565b82525050565b61224d816129e5565b82525050565b61225c816129f7565b82525050565b61226b81612a09565b82525050565b61227a81612a1b565b82525050565b61228981612a1b565b82525050565b600061229c601b8361291c565b91507f536166654d6174683a206164646974696f6e206f766572666c6f7700000000006000830152602082019050919050565b60006122dc60248361291c565b91507f4e6f7420656e6f7567682066756e647320746f2072657061792064796478206c60008301527f6f616e21000000000000000000000000000000000000000000000000000000006020830152604082019050919050565b600061234260248361291c565b91507f4e6f206d61726b6574496420666f756e6420666f722070726f7669646564207460008301527f6f6b656e000000000000000000000000000000000000000000000000000000006020830152604082019050919050565b6000610160830160008301516123b46000860182612244565b5060208301516123c76020860182612501565b5060408301516123da604086018261247d565b5060608301516123ed60c0860182612501565b50608083015161240060e0860182612501565b5060a083015161241461010086018261209e565b5060c0830151612428610120860182612501565b5060e083015184820361014086015261244182826121fc565b9150508091505092915050565b6040820160008201516124646000850182612271565b5060208201516124776020850182612501565b50505050565b60808201600082015161249360008501826121ed565b5060208201516124a66020850182612253565b5060408201516124b96040850182612262565b5060608201516124cc6060850182612501565b50505050565b6040820160008201516124e8600085018261209e565b5060208201516124fb6020850182612501565b50505050565b61250a816129b7565b82525050565b612519816129b7565b82525050565b600060208201905061253460008301846120ad565b92915050565b600060408201905061254f60008301856120ad565b61255c6020830184612510565b9392505050565b6000604082019050818103600083015261257d818561218f565b90508181036020830152612591818461211a565b90509392505050565b60006060820190506125af6000830186612235565b6125bc6020830185612235565b6125c96040830184612510565b949350505050565b60006040820190506125e66000830185612235565b6125f36020830184612510565b9392505050565b600060608201905061260f6000830186612235565b61261c6020830185612510565b6126296040830184612510565b949350505050565b60006060820190506126466000830186612280565b6126536020830185612510565b6126606040830184612510565b949350505050565b600060208201905081810360008301526126818161228f565b9050919050565b600060208201905081810360008301526126a1816122cf565b9050919050565b600060208201905081810360008301526126c181612335565b9050919050565b60006040820190506126dd600083018461244e565b92915050565b60006020820190506126f86000830184612510565b92915050565b60006040820190506127136000830185612510565b818103602083015261272581846120bc565b90509392505050565b60006080820190506127436000830187612510565b818103602083015261275581866120bc565b905061276460408301856120ad565b6127716060830184612510565b95945050505050565b600060a08201905061278f6000830188612510565b61279c6020830187612510565b81810360408301526127ae81866120bc565b90506127bd60608301856120ad565b6127ca6080830184612510565b9695505050505050565b6000604051905081810181811067ffffffffffffffff821117156127f757600080fd5b8060405250919050565b600067ffffffffffffffff82111561281857600080fd5b602082029050602081019050919050565b600067ffffffffffffffff82111561284057600080fd5b601f19601f8301169050602081019050919050565b6000819050602082019050919050565b6000819050602082019050919050565b6000819050602082019050919050565b600081519050919050565b600081519050919050565b600081519050919050565b600081519050919050565b6000602082019050919050565b6000602082019050919050565b6000602082019050919050565b600082825260208201905092915050565b600082825260208201905092915050565b600082825260208201905092915050565b600082825260208201905092915050565b600082825260208201905092915050565b600061293882612997565b9050919050565b60008115159050919050565b600081905061295982612a80565b919050565b600081905061296c82612a8d565b919050565b600081905061297f82612a9a565b919050565b600081905061299282612aa7565b919050565b600073ffffffffffffffffffffffffffffffffffffffff82169050919050565b6000819050919050565b60006129cc826129d3565b9050919050565b60006129de82612997565b9050919050565b60006129f08261294b565b9050919050565b6000612a028261295e565b9050919050565b6000612a1482612971565b9050919050565b6000612a2682612984565b9050919050565b82818337600083830152505050565b60005b83811015612a5a578082015181840152602081019050612a3f565b83811115612a69576000848401525b50505050565b6000601f19601f8301169050919050565b60098110612a8a57fe5b50565b60028110612a9757fe5b50565b60028110612aa457fe5b50565b60028110612ab157fe5b50565b612abd8161292d565b8114612ac857600080fd5b50565b612ad48161293f565b8114612adf57600080fd5b50565b60028110612aef57600080fd5b50565b612afb816129b7565b8114612b0657600080fd5b5056fea365627a7a72315820e91e75800dc4e4abd2cd16c8ed4ba972d55418e7240bd71c8e54d9cc886026376c6578706572696d656e74616cf564736f6c63430005100040",
  "source": "pragma solidity ^0.5.0;\r\npragma experimental ABIEncoderV2;\r\n\r\nimport \"@studydefi/money-legos/dydx/contracts/DydxFlashloanBase.sol\";\r\nimport \"@studydefi/money-legos/dydx/contracts/ICallee.sol\";\r\nimport { KyberNetworkProxy as IKyberNetworkProxy } from '@studydefi/money-legos/kyber/contracts/KyberNetworkProxy.sol';\r\n\r\nimport \"@openzeppelin/contracts/token/ERC20/IERC20.sol\";\r\nimport './IUniswapV2Router02.sol';\r\nimport './IWeth.sol';\r\n\r\n//interface OrFeedInterface {\r\n//  function getExchangeRate ( string calldata fromSymbol, string calldata  toSymbol, string calldata venue, uint256 amount ) external view returns ( uint256 );\r\n//  function getTokenDecimalCount ( address tokenAddress ) external view returns ( uint256 );\r\n//  function getTokenAddress ( string calldata  symbol ) external view returns ( address );\r\n//  function getSynthBytes32 ( string calldata  symbol ) external view returns ( bytes32 );\r\n//  function getForexAddress ( string calldata symbol ) external view returns ( address );\r\n//  function arb(address  fundsReturnToAddress,  address liquidityProviderContractAddress, string[] calldata   tokens,  uint256 amount, string[] calldata  exchanges) external payable returns (bool);\r\n//}\r\n\r\ninterface ERC20GasToken {\r\n  function name (  ) external view returns ( string memory);\r\n  function freeFromUpTo ( address from, uint256 value ) external returns ( uint256 freed );\r\n  function approve ( address spender, uint256 value ) external returns ( bool success );\r\n  function totalSupply (  ) external view returns ( uint256 supply );\r\n  function transferFrom ( address from, address to, uint256 value ) external returns ( bool success );\r\n  function decimals (  ) external view returns ( uint8 );\r\n  function freeFrom ( address from, uint256 value ) external returns ( bool success );\r\n  function freeUpTo ( uint256 value ) external returns ( uint256 freed );\r\n  function balanceOf ( address owner ) external view returns ( uint256 balance );\r\n  function symbol (  ) external view returns ( string memory);\r\n  function mint ( uint256 value ) external;\r\n  function transfer ( address to, uint256 value ) external returns ( bool success );\r\n  function free ( uint256 value ) external returns ( bool success );\r\n  function allowance ( address owner, address spender ) external view returns ( uint256 remaining );\r\n}\r\n\r\ncontract Flashloan is ICallee, DydxFlashloanBase {\r\n    enum Direction { KyberToUniswap, UniswapToKyber } \r\n    struct ArbInfo {\r\n        Direction direction;\r\n        uint repayAmount;\r\n    }\r\n\r\n    event NewArbitrage (\r\n      Direction direction,\r\n      uint profit,\r\n      uint date\r\n    );\r\n\r\n    IKyberNetworkProxy kyber;\r\n    IUniswapV2Router02 uniswap;\r\n    IWeth weth;\r\n    IERC20 dai;\r\n    address beneficiary;\r\n    address constant KYBER_ETH_ADDRESS = 0xEeeeeEeeeEeEeeEeEeEeeEEEeeeeEeeeeeeeEEeE;\r\n    ERC20GasToken gasToken = ERC20GasToken(0x0000000000b3F879cb30FE243b4Dfee438691c04);\r\n    \r\n    constructor(\r\n        address kyberAddress,\r\n        address uniswapAddress,\r\n        address wethAddress,\r\n        address daiAddress,\r\n        address beneficiaryAddress\r\n    ) public {\r\n      kyber = IKyberNetworkProxy(kyberAddress);\r\n      uniswap = IUniswapV2Router02(uniswapAddress);\r\n      weth = IWeth(wethAddress);\r\n      dai = IERC20(daiAddress);\r\n      beneficiary = beneficiaryAddress;\r\n    }\r\n\r\n    // This is the function that will be called postLoan\r\n    // i.e. Encode the logic to handle your flashloaned funds here\r\n    function callFunction(\r\n        address sender,\r\n        Account.Info memory account,\r\n        bytes memory data\r\n    ) public {\r\n        ArbInfo memory arbInfo = abi.decode(data, (ArbInfo));\r\n        uint256 balanceDai = dai.balanceOf(address(this));\r\n\r\n        // Note that you can ignore the line below\r\n        // if your dydx account (this contract in this case)\r\n        // has deposited at least ~2 Wei of assets into the account\r\n        // to balance out the collaterization ratio\r\n        require(\r\n            balanceDai >= arbInfo.repayAmount,\r\n            \"Not enough funds to repay dydx loan!\"\r\n        );\r\n\r\n        if(arbInfo.direction == Direction.KyberToUniswap) {\r\n          //Buy ETH on Kyber\r\n          dai.approve(address(uniswap), balanceDai); \r\n          (uint expectedRate, ) = kyber.getExpectedRate(\r\n            dai, \r\n            IERC20(KYBER_ETH_ADDRESS), \r\n            balanceDai\r\n          );\r\n          kyber.swapTokenToEther(dai, balanceDai, expectedRate);\r\n          \r\n\r\n          //Sell ETH on Uniswap\r\n          address[] memory path = new address[](2);\r\n          path[0] = address(weth);\r\n          path[1] = address(dai);\r\n          uint[] memory minOuts = uniswap.getAmountsOut(address(this).balance - 2, path); \r\n          uniswap.swapExactETHForTokens.value(address(this).balance - 2)(\r\n            minOuts[0], \r\n            path, \r\n            address(this), \r\n            now\r\n          );\r\n          if(gasToken.balanceOf(address(this)) >0){\r\n            gasToken.freeFromUpTo(address(this), gasToken.balanceOf(address(this)));\r\n          }\r\n        } else {\r\n          //Buy ETH on Uniswap\r\n          dai.approve(address(uniswap), balanceDai); \r\n          address[] memory path = new address[](2);\r\n          path[0] = address(dai);\r\n          path[1] = address(weth);\r\n          uint[] memory minOuts = uniswap.getAmountsOut(balanceDai, path); \r\n          uniswap.swapExactTokensForETH(\r\n            balanceDai, \r\n            minOuts[0], \r\n            path, \r\n            address(this), \r\n            now\r\n          );\r\n\r\n          //Sell ETH on Kyber\r\n          (uint expectedRate, ) = kyber.getExpectedRate(\r\n            IERC20(KYBER_ETH_ADDRESS), \r\n            dai, \r\n            address(this).balance - 2\r\n          );\r\n          kyber.swapEtherToToken.value(address(this).balance - 2)(\r\n            dai, \r\n            expectedRate\r\n          );\r\n          if(gasToken.balanceOf(address(this)) >0){\r\n            gasToken.freeFromUpTo(address(this), gasToken.balanceOf(address(this)));\r\n          }\r\n        }\r\n        uint profit = dai.balanceOf(address(this)) - arbInfo.repayAmount; \r\n        dai.transfer(beneficiary, profit);\r\n        emit NewArbitrage(arbInfo.direction, profit, now);\r\n    }\r\n\r\n    function initiateFlashloan(\r\n      address _solo, \r\n      address _token, \r\n      uint256 _amount, \r\n      Direction _direction)\r\n        external\r\n    {\r\n        ISoloMargin solo = ISoloMargin(_solo);\r\n\r\n        // Get marketId from token address\r\n        uint256 marketId = _getMarketIdFromTokenAddress(_solo, _token);\r\n\r\n        // Calculate repay amount (_amount + (2 wei))\r\n        // Approve transfer from\r\n        uint256 repayAmount = _getRepaymentAmountInternal(_amount);\r\n        IERC20(_token).approve(_solo, repayAmount);\r\n\r\n        // 1. Withdraw $\r\n        // 2. Call callFunction(...)\r\n        // 3. Deposit back $\r\n        Actions.ActionArgs[] memory operations = new Actions.ActionArgs[](3);\r\n\r\n        operations[0] = _getWithdrawAction(marketId, _amount);\r\n        operations[1] = _getCallAction(\r\n            // Encode MyCustomData for callFunction\r\n            abi.encode(ArbInfo({direction: _direction, repayAmount: repayAmount}))\r\n        );\r\n        operations[2] = _getDepositAction(marketId, repayAmount);\r\n\r\n        Account.Info[] memory accountInfos = new Account.Info[](1);\r\n        accountInfos[0] = _getAccountInfo();\r\n\r\n        solo.operate(accountInfos, operations);\r\n        if(gasToken.balanceOf(address(this)) >0){\r\n            gasToken.freeFromUpTo(address(this), gasToken.balanceOf(address(this)));\r\n        }\r\n    }\r\n}\r\n",
  "sourcePath": "C:\\Users\\Noah\\flashLoans\\profitable-flashloans\\contracts\\Flashloan.sol",
  "compiler": {
    "name": "solc",
    "version": "0.5.16+commit.9c3226ce.Emscripten.clang"
  },
  "schemaVersion": "3.2.1",
  "updatedAt": "2020-07-09T01:26:28.497Z",
  "devdoc": {
    "methods": {}
  },
  "userdoc": {
    "methods": {}
  }
}